S00B00004D50542E7372656328
S11300000C942A000C943F000C943F000C943F0085
S11300100C943F000C943F000C943F000C943F0060
S11300200C943F000C943F000C943F000C943F0050
S11300300C943F000C943F000C943F000C943F0040
S11300400C943F000C943F000C943F000C943F0030
S11300500C943F0011241FBECFE5D8E0DEBFCDBF16
S113006010E0A0E6B0E0E6E5F2E002C005900D92F3
S1130070A036B107D9F70E94F3000C9429010C941F
S11300800000CF93DF9300D0CDB7DEB784E390E0D8
S11300902FEFFC01208387E390E0FC01108285E3CD
S11300A090E02FEFFC0120831A8286E390E0FC01AC
S11300B080818823D4F781E090E00E94FA001982BD
S11300C01DC085E390E025E330E0F9012081622F33
S11300D02981422F220F550B21E030E002C0220F6C
S11300E0331F4A95E2F720952623FC01208381E003
S11300F090E00E94FA0089818F5F8983898188302A
S113010004F319821CC085E390E025E330E0F90193
S11301102081622F2981422F220F550B21E030E0EC
S113012002C0220F331F4A95E2F7262BFC012083DD
S113013081E090E00E94FA0089818F5F8983898140
S113014088300CF387E089831DC085E390E025E3C4
S113015030E0F9012081622F2981422F220F550BB3
S113016021E030E002C0220F331F4A95E2F72095C8
S11301702623FC01208381E090E00E94FA0089811B
S1130180815089838981882304F787E089831CC08F
S113019085E390E025E330E0F9012081622F298195
S11301A0422F220F550B21E030E002C0220F331FF3
S11301B04A95E2F7262BFC01208381E090E00E941F
S11301C0FA00898181508983898188230CF704C0CE
S11301D081E090E00E94FA0086E390E0FC018081D7
S11301E08823B4F362CFCF93DF93CDB7DEB70E94F9
S11301F04100FFCFCF93DF9300D000D000D0CDB724
S1130200DEB79E838D831C821B8212C01A821982E0
S113021005C089819A8101969A83898389819A810B
S113022088359240B0F38B819C8101969C838B83AB
S11302302B813C818D819E812817390738F300007A
S113024026960FB6F894DEBF0FBECDBFDF91CF91D7
S10902500895F894FFCFAD
S9030000FC
