:100000000C942A000C943F000C943F000C943F0089
:100010000C943F000C943F000C943F000C943F0064
:100020000C943F000C943F000C943F000C943F0054
:100030000C943F000C943F000C943F000C943F0044
:100040000C943F000C943F000C943F000C943F0034
:100050000C943F0011241FBECFE5D8E0DEBFCDBF1A
:1000600010E0A0E6B0E0E0E9F0E002C005900D92FB
:10007000A036B107D9F70E9441000C9446000C94B9
:100080000000CF93DF93CDB7DEB7FFCFF894FFCF5B
:00000001FF
