:100000000C942A000C943F000C943F000C943F0089
:100010000C943F000C943F000C943F000C943F0064
:100020000C943F000C943F000C943F000C943F0054
:100030000C943F000C943F000C943F000C943F0044
:100040000C943F000C943F000C943F000C943F0034
:100050000C943F0011241FBECFE5D8E0DEBFCDBF1A
:1000600010E0A0E6B0E0E0E6F4E002C005900D92FA
:10007000A036B107D9F70E94C2000C942E020C944E
:1000800000000F931F93CF93DF93CDB7DEB784E3C8
:1000900090E02FEFFC01208387E390E0FC011082C9
:1000A00085E390E02FEFFC01208300E815E220E0DB
:1000B00030E040E061E088E00E94F800000086E364
:1000C00090E0FC018081882F90E080749927892B33
:1000D00081F486E390E0FC018081882354F086E37C
:1000E00090E0FC018081882F90E080729927892B15
:1000F00031F382E390E00E94C90086E390E0FC01C6
:100100008081882F90E080749927892B71F08BE291
:100110000E94F101000086E390E0FC018081882FBD
:1001200090E080749927892BB1F786E390E0FC0179
:100130008081882354F48DE20E94F101000086E35F
:1001400090E0FC0180818823D4F386E390E0FC01F9
:100150008081882F90E080729927892B71F082E549
:100160000E94F101000086E390E0FC018081882F6D
:1001700090E080729927892BB1F782E390E00E948A
:10018000C9009CCFCF93DF93CDB7DEB70E9441006B
:10019000FFCFCF93DF9300D000D000D0CDB7DEB734
:1001A0009E838D831C821B8212C01A82198205C015
:1001B00089819A8101969A83898389819A81883578
:1001C0009240B0F38B819C8101969C838B832B8121
:1001D0003C818D819E812817390738F300002696CF
:1001E0000FB6F894DEBF0FBECDBFDF91CF9108955B
:1001F0000F931F93CF93DF93CDB7DEB727970FB63B
:10020000F894DEBF0FBECDBF89836A834B830C8316
:100210001D832E833F838A81813051F480E490E0F6
:1002200020E430E0F90120812062FC01208315C028
:100230008A81823051F480E490E020E430E0F901DA
:1002400020812063FC01208308C080E490E020E44A
:1002500030E0F9012081FC0120838B81813049F459
:1002600080E490E020E430E0F9012081FC0120836B
:100270000CC08B81823049F480E490E020E430E0CF
:10028000F90120812860FC0120838981882F90E07A
:1002900087309105C9F08830910534F48530910597
:1002A000D1F1069739F038C088309105B9F0099737
:1002B000F9F032C080E490E020E430E0F9012081E0
:1002C0002260FC01208328C080E490E020E430E03C
:1002D000F90120812460FC0120831EC080E490E0AD
:1002E00020E430E0F90120812660FC01208314C065
:1002F0008AE290E02AE230E0F90120812460FC01EA
:10030000208380E490E020E430E0F9012081266041
:10031000FC01208301C0000009E210E08C819D8176
:10032000AE81BF81880F991FAA1FBB1F880F991F1D
:10033000AA1FBB1F880F991FAA1FBB1F880F991FD9
:10034000AA1FBB1F9C01AD0180E094E2A4EFB0E0C6
:10035000BC01CD010E940C02DA01C9018150F801F3
:10036000808300E410E08C819D81AE81BF81880F85
:10037000991FAA1FBB1F880F991FAA1FBB1F880F99
:10038000991FAA1FBB1F880F991FAA1FBB1F9C0183
:10039000AD0180E094E2A4EFB0E0BC01CD010E9489
:1003A0000C02DA01C9010197A109B109892F9A2F1D
:1003B000AB2FBB27F80180838AE290E02AE230E08D
:1003C000F90120812861FC012083000027960FB6E7
:1003D000F894DEBF0FBECDBFDF91CF911F910F917B
:1003E0000895CF93DF931F92CDB7DEB789830000C6
:1003F0008BE290E0FC018081882F90E08072992749
:10040000892BB1F38CE290E02981FC01208300006C
:100410000F90DF91CF910895A1E21A2EAA1BBB1B6A
:10042000FD010DC0AA1FBB1FEE1FFF1FA217B307C0
:10043000E407F50720F0A21BB30BE40BF50B661FD6
:10044000771F881F991F1A9469F76095709580959A
:1004500090959B01AC01BD01CF010895F894FFCFA9
:00000001FF
