:100000000C9432000C9447000C9447000C94470069
:100010000C9447000C9447000C9447000C94470044
:100020000C9447000C9447000C9447000C94470034
:100030000C9447000C9447000C9447000C94470024
:100040000C9447000C9447000C9447000C94470014
:100050000C9447007C00870092009D00A800B3002C
:10006000BE00C90011241FBECFE5D8E0DEBFCDBF62
:1000700010E0A0E6B0E0E4EBF4E002C005900D92E1
:10008000A63AB107D9F70E94D9000C9458020C94F3
:1000900000000F931F93CF93DF931F92CDB7DEB76E
:1000A00084E390E02FEFFC01208385E390E02FEFC5
:1000B000FC01208300E815E220E030E041E060E050
:1000C00088E00E94E0000E941A0289838981882FBB
:1000D00090E0092E000CAA0BBB0B40E350E027E098
:1000E00030E0841B950B2817390708F45DC0865D46
:1000F0009F4FFC010C94520285E390E025E330E031
:10010000F901308121E02327FC01208351C085E3E0
:1001100090E025E330E0F901308122E02327FC0163
:10012000208346C085E390E025E330E0F90130818B
:1001300024E02327FC0120833BC085E390E025E3F6
:1001400030E0F901308128E02327FC01208330C012
:1001500085E390E025E330E0F901308120E12327B9
:10016000FC01208325C085E390E025E330E0F90120
:10017000308120E22327FC0120831AC085E390E030
:1001800025E330E0F901308120E42327FC012083BE
:100190000FC085E390E025E330E0F901308120E8ED
:1001A0002327FC01208304C08DE890E00E94F40125
:1001B0008ACFCF93DF93CDB7DEB70E944900FFCF40
:1001C0000F931F93CF93DF93CDB7DEB727970FB66B
:1001D000F894DEBF0FBECDBF89836A834B830C8347
:1001E0001D832E833F838A81813051F480E490E027
:1001F00020E430E0F90120812062FC01208315C059
:100200008A81823051F480E490E020E430E0F9010A
:1002100020812063FC01208308C080E490E020E47A
:1002200030E0F9012081FC0120838B81813049F489
:1002300080E490E020E430E0F9012081FC0120839B
:100240000CC08B81823049F480E490E020E430E0FF
:10025000F90120812860FC0120838981882F90E0AA
:1002600087309105C9F08830910534F485309105C7
:10027000D1F1069739F038C088309105B9F0099767
:10028000F9F032C080E490E020E430E0F901208110
:100290002260FC01208328C080E490E020E430E06C
:1002A000F90120812460FC0120831EC080E490E0DD
:1002B00020E430E0F90120812660FC01208314C095
:1002C0008AE290E02AE230E0F90120812460FC011A
:1002D000208380E490E020E430E0F9012081266072
:1002E000FC01208301C0000009E210E08C819D81A7
:1002F000AE81BF81880F991FAA1FBB1F880F991F4E
:10030000AA1FBB1F880F991FAA1FBB1F880F991F09
:10031000AA1FBB1F9C01AD0180E094E2A4EFB0E0F6
:10032000BC01CD010E943002DA01C9018150F801FF
:10033000808300E410E08C819D81AE81BF81880FB5
:10034000991FAA1FBB1F880F991FAA1FBB1F880FC9
:10035000991FAA1FBB1F880F991FAA1FBB1F9C01B3
:10036000AD0180E094E2A4EFB0E0BC01CD010E94B9
:100370003002DA01C9010197A109B109892F9A2F29
:10038000AB2FBB27F80180838AE290E02AE230E0BD
:10039000F90120812861FC012083000027960FB617
:1003A000F894DEBF0FBECDBFDF91CF911F910F91AB
:1003B0000895CF93DF931F92CDB7DEB789830000F6
:1003C0008BE290E0FC018081882F90E08072992779
:1003D000892BB1F38CE290E02981FC01208300009D
:1003E0000F90DF91CF910895CF93DF9300D000D08D
:1003F000CDB7DEB79C838B838B819C819A83898365
:100400000BC089819A81FC0180810E94D901898178
:100410009A8101969A83898389819A81FC018081DE
:10042000882379F700000F900F900F900F90DF91C5
:10043000CF910895CF93DF931F92CDB7DEB7000021
:100440008BE290E0FC0180818823D4F78CE290E07D
:10045000FC018081898389810F90DF91CF9108957C
:10046000A1E21A2EAA1BBB1BFD010DC0AA1FBB1FB8
:10047000EE1FFF1FA217B307E407F50720F0A21B2A
:10048000B30BE40BF50B661F771F881F991F1A9497
:1004900069F760957095809590959B01AC01BD01C1
:1004A000CF010895EE0FFF1F0590F491E02D099400
:0404B000F894FFCFEE
:1004B4000A0D004D50542D5465726D696E616C0ABD
:1004C4000D00426974746520676562656E20536926
:1004D400652065747761732065696E3A004B6569C0
:1004E4006E65206775656C746967652045696E671C
:0604F400616265210000B9
:00000001FF
